:100000000C942A000C9447000C9447000C94470071
:100010000C9447000C9447000C9447000C94A00CDF
:100020000C9447000C9447000C9447000C94470034
:100030000C9447000C9447000C9447000C94470024
:100040000C9447000C9447000C9447000C94470014
:100050000C94470011241FBECFE5D8E0DEBFCDBF12
:1000600010E0A0E6B0E0E4E8F9E402C005900D92EB
:10007000A038B107D9F715E0A0E8B0E001C01D92A3
:10008000AA39B107E1F70E94DF230C94C0240C9435
:100090000000AF92BF92CF92DF92EF92FF920F9348
:1000A000DF93CF930F92CDB7DEB789838AE062E00A
:1000B00040E00E94290D90938300809382008DEC94
:1000C00090E020E630E0E2E8F0E0B90145E550E0FC
:1000D0009F010981EE24FF24CC24DD24AA24BB2423
:1000E0000E944F1480E990E028E630E0E2E8F0E07A
:1000F000B90145E550E09F010981EE24FF24CC249D
:10010000DD24AA24BB240E944F140F90CF91DF91CD
:100110000F91FF90EF90DF90CF90BF90AF90089538
:10012000DF93CF9300D000D000D0CDB7DEB79E8351
:100130008D831C821B821A82198227C0ED81FE8169
:10014000808191819E012D5F3F4FB90140E050E0D9
:1001500020E00E94F40D813019F081E08A8312C002
:100160008A81882351F40FB6F8940F928091810010
:100170008F5F809381000F900FBE8B819C810196D1
:100180009C838B8389818F5F898389818330B4F2DB
:1001900088EC90E00E940916CFCFDF93CF93CDB7C4
:1001A000DEB727970FB6F894DEBF0FBECDBF9F8393
:1001B0008E831B821A8219822FC0EE81FF8180817B
:1001C00091819E012C5F3F4FB90140E050E020E05B
:1001D0000E94020F813001F52C813D818A819B8133
:1001E0002817390739F081E089838C819D819B83B1
:1001F0008A830DC08981882351F40FB6F8940F9239
:10020000809180008F5F809380000F900FBE8A8165
:100210009B8101969B838A83EE81FF8180819181FE
:100220000E947310882349F684EB90E00E9409161F
:10023000F3CFDF93CF930F92CDB7DEB780918000DD
:10024000882321F080918100882311F4198202C053
:1002500081E08983109280001092810089810F9043
:10026000CF91DF910895DF93CF93CDB7DEB7279776
:100270000FB6F894DEBF0FBECDBF9D838C836E8317
:100280004F838AE190E00E944B079A83898389819A
:100290009A81009709F46FC0809184009091850045
:1002A000009741F489819A8190938500809384001E
:1002B0000E949A038E81823010F081E08E83E98162
:1002C000FA81118E108EE981FA818E81868BE98107
:1002D000FA818F81878BE981FA818C819D8191835D
:1002E000808389819A8102960E94C30889819A81BC
:1002F0000C960E94C308E981FA8189819A819187CD
:100300008087E981FA8189819A81938B828B8E81A2
:10031000282F30E082E090E0821B930BE981FA8184
:1003200095878487E981FA8196898091860089176B
:1003300028F4E981FA81868980938600E981FA812F
:100340008689282F30E0C901880F991F880F991FCF
:10035000880F991F820F931FAC0143575F4F89810C
:100360009A819C012E5F3F4FCA01B9010E94D308B8
:1003700081E08B8302C08FEF8B838B8127960FB632
:10038000F894DEBF0FBECDBFCF91DF910895DF930C
:10039000CF9300D000D000D0CDB7DEB79C838B8345
:1003A0007E836D8320918700309188008B819C81B2
:1003B000820F931F9A838983809184009091850096
:1003C00002960E948309E0918400F0918500898162
:1003D0009A8193838283209187003091880089815C
:1003E0009A818217930770F48091B3009091B400C2
:1003F00020918400309185002E5F3F4FB9010E940B
:1004000017090DC08091B1009091B2002091840035
:10041000309185002E5F3F4FB9010E9417098D81F1
:100420009E81009761F080918400909185009C01ED
:10043000245F3F4F8D819E81B9010E941709269646
:100440000FB6F894DEBF0FBECDBFCF91DF910895F8
:10045000DF93CF9300D0CDB7DEB73AC0F894E091E8
:10046000BA00F091BB00868197819A838983898144
:100470009A810C960E948309789489819A810296C8
:100480000E948309E981FA81968980918600891703
:1004900028F4E981FA81868980938600E981FA81CE
:1004A0008689282F30E0C901880F991F880F991F6E
:1004B000880F991F820F931FAC0143575F4F8981AB
:1004C0009A819C012E5F3F4FCA01B9010E94D30857
:1004D0008091B500882309F0C1CF0F900F90CF9184
:1004E000DF910895DF93CF9300D000D0CDB7DEB772
:1004F0000E9413182091890030918A00821B930B6F
:1005000090938C0080938B0085C0809187009091A0
:1005100088000196909388008093870080918B00DB
:1005200090918C00019790938C0080938B00809128
:10053000870090918800009709F064C08091B10015
:100540009091B2009A8389838091B3009091B40016
:100550009093B2008093B10089819A819093B40006
:100560008093B3004FC0E091B100F091B2000580DC
:10057000F681E02D868197819C838B83EB81FC81C2
:1005800022813381809187009091880082179307A0
:1005900008F440C0F8948B819C8102960E948309E4
:1005A000EB81FC8184899589009729F08B819C815E
:1005B0000C960E9483097894EB81FC819689809146
:1005C0008600891728F4EB81FC8186898093860058
:1005D000EB81FC818689282F30E0C901880F991FA3
:1005E000880F991F880F991F820F931FAC014357E3
:1005F0005F4F8B819C819C012E5F3F4FCA01B901E7
:100600000E94D308E091B100F091B200808188236C
:1006100009F0A9CF80918B0090918C00009709F090
:1006200074CF809187009091880090938A00809386
:1006300089000F900F900F900F90CF91DF91089548
:10064000DF93CF9300D0CDB7DEB70E9428020E947F
:1006500072020AC080918600882309F466C08091E6
:10066000860081508093860080918600282F30E09C
:10067000C901880F991F880F991F880F991F820F32
:10068000931FFC01E357FF4F8081882319F380916A
:100690008600282F30E0C901880F991F880F991F05
:1006A000880F991F820F931F83579F4F9A838983C7
:1006B000E981FA810180F281E02D82819381E981D3
:1006C000FA8192838183E981FA8121813281898152
:1006D0009A8103962817390759F4E981FA81018034
:1006E000F281E02D82819381E981FA819283818375
:1006F000E981FA810180F281E02D868197819093D2
:10070000850080938400E0918400F0918500408111
:1007100051818091840090918500E0918400F09156
:1007200085002789622FFA0109950F900F90CF91CC
:10073000DF910895DF93CF930F92CDB7DEB7198283
:1007400013C08981282F30E0C901880F991F880FB5
:10075000991F880F991F820F931F83579F4F0E94E5
:10076000990889818F5F89838981823050F38FE96D
:1007700090E00E94990888EA90E00E94990885EB31
:1007800090E00E9499088FE990E09093B2008093E6
:10079000B10088EA90E09093B4008093B3000F908A
:1007A000CF91DF910895DF93CF9300D000D00F92C7
:1007B000CDB7DEB79D838C83EC81FD810580F6810A
:1007C000E02D868197819B838A838A819B810C9609
:1007D0000E9483098A819B819C01245F3F4F85EBA6
:1007E00090E0B9010E94D308EA81FB819689E091EB
:1007F0008400F09185008689981718F081E089833C
:1008000001C0198289810F900F900F900F900F9067
:10081000CF91DF910895DF93CF9300D0CDB7DEB7AE
:100820008BE090E00E944B079A83898389819A81AB
:10083000009749F0E981FA811182108289819A81B9
:1008400002960E94990889819A810F900F90CF910A
:10085000DF910895DF93CF93CDB7DEB760970FB6E2
:10086000F894DEBF0FBECDBF9A8789877C876B87E0
:100870005E874D87388B2F8789859A859C838B83EC
:1008800019820E947D17EB81FC818081918198877C
:100890008F8389859A852B853C85B9010E94FC054B
:1008A0002F8138858B859C85282B392B8D859E85BE
:1008B000282339238D859E8528173907C9F42F8170
:1008C00038858B859C85822B932B9E838D83EB8132
:1008D000FC81208131818D859E8580959095822334
:1008E0009323EB81FC8191838083188A1F861CC02F
:1008F0008F859889009791F08B819C81BC016E5FF8
:100900007F4F8D859E859C0135604F855889CB0131
:10091000B9010E94CD191E821D8206C0EB81FC81A7
:10092000808191819E838D830E9489178A838F8520
:100930009889009709F43AC08A81882311F40E94AB
:100940008E0B0E94491E9E838D838D819E818070B7
:100950009270009731F50FB6F8940F92EB81FC81FD
:10096000808191819E838D832D813E818D859E85A1
:10097000282339238D859E852817390771F4EB814B
:10098000FC81208131818D859E8580959095822383
:100990009323EB81FC81918380830F900FBE81E0D4
:1009A00089838D819E8190709E838D838D819E81B0
:1009B00060960FB6F894DEBF0FBECDBFCF91DF912A
:1009C00008950F931F93DF93CF93CDB7DEB763974F
:1009D0000FB6F894DEBF0FBECDBF9D878C877F8793
:1009E0006E87488B298B1B8B0A8B8C859D859B87FB
:1009F0008A871F821E821B820E947D17EA85FB85E3
:100A0000808191819A83898389819A812E853F850E
:100A1000B90149890E9419078D838D818823C1F00E
:100A200089819A81998788871B8A1A8A888988236D
:100A3000D9F1EA85FB85208131818E859F8580955E
:100A4000909582239323EA85FB85918380832CC034
:100A50008A899B89009729F489819A819987888757
:100A600023C08889882329F08E819F8191609F838C
:100A70008E838989882329F08E819F8194609F834A
:100A80008E838A859B85BC016E5F7F4F2E853F8557
:100A90008E819F81282B392B4A895B89CB01B90133
:100AA0000E94CD19198618860E9489178C838A891D
:100AB0009B89009709F43BC08C81882311F40E9424
:100AC0008E0B0E94491E998788878885998580703A
:100AD0009270009739F50FB6F8940F92EA85FB856E
:100AE0008081918199878887888599852E853F8522
:100AF000B90149890E941907882389F088898823C8
:100B000071F0EA85FB85208131818E859F858095F6
:100B1000909582239323EA85FB85918380830F90B0
:100B20000FBE1B82888599859070998788878885F4
:100B3000998563960FB6F894DEBF0FBECDBFCF91F7
:100B4000DF911F910F910895DF93CF93CDB7DEB75B
:100B500028970FB6F894DEBF0FBECDBF9E838D835E
:100B600078876F838D819E819C838B830FB6F894E9
:100B70000F92EB81FC81808191819A838983EB8143
:100B8000FC81208131818F81988580959095822389
:100B90009323EB81FC81918380830F900FBE898129
:100BA0009A8128960FB6F894DEBF0FBECDBFCF91C5
:100BB000DF910895DF93CF93CDB7DEB727970FB6B8
:100BC000F894DEBF0FBECDBF9F838E838E819F8141
:100BD0009C838B831D82EB81FC81808191819A8330
:100BE000898389819A8127960FB6F894DEBF0FBE5C
:100BF000CDBFCF91DF910895DF93CF93CDB7DEB70F
:100C000065970FB6F894DEBF0FBECDBF9B8B8A8B66
:100C10007D8B6C8B198618868A899B899B838A8336
:100C200019828A819B8102969B878A878A859B8508
:100C300003969D878C870E947D17EA85FB858581B9
:100C40009681998B888BEA81FB81208131818C8907
:100C50009D89822B932BEA81FB819183808359C0EC
:100C6000E889F989828193819F878E87E889F9894C
:100C7000808191819F838E8319828E819F81807074
:100C80009D838C838E819F8190709F838E838C81C6
:100C90009D8180709470009769F4EA81FB812081C6
:100CA00031818E819F8182239323009791F081E08F
:100CB00089830FC0EA81FB81208131818E819F81F0
:100CC000282339238E819F812817390711F481E069
:100CD000898389818823C9F08C819D81807091707E
:100CE000009741F0888599852E813F81822B932B37
:100CF00099878887EA81FB81808191819C0132609C
:100D000088899989B9010E947B1A8E859F85998B64
:100D1000888B288939898C859D852817390709F0A2
:100D20009FCFEA81FB8120813181888599858095DB
:100D3000909582239323EA81FB81918380830E9493
:100D40008917EA81FB818081918165960FB6F894BD
:100D5000DEBF0FBECDBFCF91DF910895DF93CF935C
:100D600000D000D000D0CDB7DEB79E838D838D81BB
:100D70009E819C838B838B819C8102969A8389833D
:100D80000E947D1708C0E981FA818581968160E023
:100D900072E00E947B1AE981FA818081882399F7A9
:100DA0008B819C810E94A1070E94891726960FB60D
:100DB000F894DEBF0FBECDBFCF91DF910895DF93D2
:100DC000CF9300D000D000D0CDB7DEB79A8389830F
:100DD0004B835C836D837E832B813C8189819A81E7
:100DE000B9010E94FC0526960FB6F894DEBF0FBE2F
:100DF000CDBFCF91DF910895DF93CF9300D000D086
:100E000000D0CDB7DEB79A8389834B835C836D8333
:100E10007E832B813C8189819A81B9010E94A4053E
:100E200026960FB6F894DEBF0FBECDBFCF91DF91EF
:100E30000895DF93CF9300D000D000D0CDB7DEB7B8
:100E40009B838A837D836C834E8319828E81882362
:100E500059F48A819B812C813D81822393230097C1
:100E600081F081E089830DC02A813B818C819D8145
:100E7000282339238C819D812817390711F481E0BB
:100E80008983898126960FB6F894DEBF0FBECDBF49
:100E9000CF91DF910895DF93CF9300D000D0CDB7ED
:100EA000DEB79C838B831A8219820E947D17809102
:100EB000C0009091C100009731F483EC90E09093D2
:100EC000C1008093C0008091BE009091BF002B8133
:100ED0003C81820F931F24E08D37920738F52091D3
:100EE000BE003091BF008B819C81280F391F8091FB
:100EF000BE009091BF0082179307C0F42091C000FC
:100F00003091C1008091BE009091BF00820F931F6D
:100F10009A8389832091BE003091BF008B819C8190
:100F2000820F931F9093BF008093BE000E94891789
:100F300089819A810F900F900F900F90CF91DF9140
:100F40000895DF93CF9300D0CDB7DEB79A8389831E
:100F50000F900F90CF91DF910895DF93CF93CDB78E
:100F6000DEB71092BF001092BE00CF91DF910895BE
:100F7000DF93CF93CDB7DEB72091BE003091BF0095
:100F80008DE794E0821B930BCF91DF910895AF9290
:100F9000BF92CF92DF92EF92FF920F93DF93CF93A6
:100FA00000D00F92CDB7DEB78B831A8219821BC097
:100FB00089819A81FC01E05CFA4F85E098E020E7A6
:100FC00030E0B90145E550E09F010B81EE24FF249C
:100FD000CC24DD24AA24BB240E944F1489819A8149
:100FE00001969A83898389819A811816190604F7D4
:100FF0000F900F900F90CF91DF910F91FF90EF9096
:10100000DF90CF90BF90AF900895DF93CF93CDB78F
:10101000DEB72A970FB6F894DEBF0FBECDBF9A8712
:1010200089871C821B8289859A859A8389838BE7AD
:1010300090E0A0E0B0E08D839E83AF83B8878D8180
:101040009E81AF81B885895B9B46AC4FBF4F8D8336
:101050009E83AF83B8878D819E81AF81B8852DEF48
:101060003FEF4FEF5FEFBC01CD010E945B24DC013D
:10107000CB018D839E83AF83B8878D819E81AF81A5
:10108000B88527E030E040E050E0BC01CD010E948F
:101090007A24DA01C9018D839E83AF83B8878D815D
:1010A0009E81AF81B8858B3127E792072EEFA2078B
:1010B0002FEFB20721F081E090E09C838B838B813E
:1010C0009C81009709F0B3CF0FB6F8940F92E98195
:1010D000FA8181E080830F900FBEA9CFDF93CF9379
:1010E00000D00F92CDB7DEB781E08B831A821982D0
:1010F00014C089819A81FC01E05CFA4F80818823C9
:1011000009F41B8289819A81FC01E05CFA4F10820C
:1011100089819A8101969A83898389819A81181697
:1011200019063CF78B810F900F900F90CF91DF91B4
:101130000895DF93CF9300D0CDB7DEB79A8389832C
:1011400089819A810396E981FA8192838183E98179
:10115000FA818FEF9FEF9483838389819A8103962D
:10116000E981FA819683858389819A810396E98151
:10117000FA8190878783E981FA8110820F900F901E
:10118000CF91DF910895DF93CF9300D0CDB7DEB735
:101190009A838983E981FA81118610860F900F90D6
:1011A000CF91DF910895DF93CF9300D000D000D08E
:1011B000CDB7DEB79C838B837E836D83EB81FC810F
:1011C000818192819A838983ED81FE8189819A81CF
:1011D00093838283E981FA8184819581ED81FE8107
:1011E00095838483E981FA810480F581E02D8D81E6
:1011F0009E8193838283E981FA818D819E8195838B
:101200008483ED81FE818B819C8191878087EB8136
:10121000FC8180818F5FEB81FC81808326960FB6F5
:10122000F894DEBF0FBECDBFCF91DF910895DF935D
:10123000CF93CDB7DEB728970FB6F894DEBF0FBEB9
:10124000CDBF9E838D8378876F83EF81F885808102
:1012500091819A83898389819A812FEF8F3F9207A9
:1012600039F4ED81FE81878190859C838B8318C042
:101270008D819E8103969C838B8306C0EB81FC81CC
:10128000828193819C838B83EB81FC810280F3813B
:10129000E02D2081318189819A818217930770F72F
:1012A000EB81FC8182819381EF81F8859383828336
:1012B000EF81F8850280F381E02D8F8198859583F9
:1012C0008483EF81F8858B819C8195838483EB8176
:1012D000FC818F81988593838283EF81F8858D814E
:1012E0009E8191878087ED81FE8180818F5FED8176
:1012F000FE81808328960FB6F894DEBF0FBECDBF67
:10130000CF91DF910895DF93CF9300D000D0CDB778
:10131000DEB79C838B83EB81FC81808591859A83EA
:101320008983EB81FC81A281B381EB81FC81848183
:10133000958115969C938E931497EB81FC81A481E3
:10134000B581EB81FC818281938113969C938E936E
:101350001297E981FA81218132818B819C81281742
:10136000390741F4EB81FC8184819581E981FA811F
:1013700092838183EB81FC8111861086E981FA8159
:1013800080818150E981FA818083E981FA818081BD
:101390000F900F900F900F90CF91DF910895DF93F2
:1013A000CF93CDB7DEB728970FB6F894DEBF0FBE48
:1013B000CDBF9C838B837E836D8358874F83EB8166
:1013C000FC8181E180838B819C8101979C838B834D
:1013D000EB81FC8182E280838B819C8101979C83DD
:1013E0008B83EB81FC8183E380838B819C810197DC
:1013F0009C838B838D819E819A8389838981EB81F4
:10140000FC8180838B819C8101979C838B83898164
:101410009A81892F99279A8389838981EB81FC811D
:1014200080838B819C8101979C838B83EB81FC81E2
:1014300010828B819C8101979C838B83EB81FC8143
:1014400080E880838B819C8101979C838B83EB81D7
:10145000FC8110828B819C8101979C838B83EB8123
:10146000FC8182E080838B819C8101979C838B83AC
:10147000EB81FC8183E080838B819C8101979C833D
:101480008B83EB81FC8184E080838B819C8101973D
:101490009C838B83EB81FC8185E080838B819C81A5
:1014A00001979C838B83EB81FC8186E080838B8119
:1014B0009C8101979C838B83EB81FC8187E08083F7
:1014C0008B819C8101979C838B83EB81FC8188E0DD
:1014D00080838B819C8101979C838B83EB81FC8132
:1014E00089E080838B819C8101979C838B83EB8136
:1014F000FC8180E180838B819C8101979C838B831D
:10150000EB81FC8181E180838B819C8101979C83AD
:101510008B83EB81FC8182E180838B819C810197AD
:101520009C838B83EB81FC8183E180838B819C8115
:1015300001979C838B83EB81FC8184E180838B8189
:101540009C8101979C838B83EB81FC8185E1808367
:101550008B819C8101979C838B83EB81FC8186E14D
:1015600080838B819C8101979C838B83EB81FC81A1
:1015700087E180838B819C8101979C838B83EB81A6
:10158000FC8188E180838B819C8101979C838B8384
:10159000EB81FC8189E180838B819C8101979C8315
:1015A0008B83EB81FC8180E280838B819C8101971E
:1015B0009C838B83EB81FC8181E280838B819C8186
:1015C00001979C838B83EB81FC8182E280838B81FA
:1015D0009C8101979C838B83EB81FC8183E28083D8
:1015E0008B819C8101979C838B838F8198859A83C3
:1015F00089838981EB81FC8180838B819C81019728
:101600009C838B8389819A81892F99279A838983E7
:101610008981EB81FC8180838B819C8101979C83F4
:101620008B83EB81FC8186E280838B819C81019797
:101630009C838B83EB81FC8187E280838B819C81FF
:1016400001979C838B83EB81FC8188E280838B8173
:101650009C8101979C838B83EB81FC8189E2808351
:101660008B819C8101979C838B83EB81FC8180E340
:1016700080838B819C8101979C838B83EB81FC8190
:1016800081E380838B819C8101979C838B838B81F9
:101690009C8128960FB6F894DEBF0FBECDBFCF91C8
:1016A000DF910895DF93CF93CDB7DEB70E94440C4E
:1016B000A0914105B0914205CD91CDBFDD91DEBF36
:1016C000FF91EF91DF91CF91BF91AF919F918F915A
:1016D0007F916F915F914F913F912F911F910F914A
:1016E000FF90EF90DF90CF90BF90AF909F908F9042
:1016F0007F906F905F904F903F902F901F900F9032
:101700000FBE0F90089581E0CF91DF910895DF9390
:10171000CF93CDB7DEB7CF91DF9108950F920FB67B
:10172000F8940F921F9211242F923F924F925F9242
:101730006F927F928F929F92AF92BF92CF92DF92E1
:10174000EF92FF920F931F932F933F934F935F93CB
:101750006F937F938F939F93AF93BF93CF93DF93B9
:10176000EF93FF93A0914105B09142050DB60D9204
:101770000EB60D920E942F19A0914105B09142051D
:10178000CD91CDBFDD91DEBFFF91EF91DF91CF9184
:10179000BF91AF919F918F917F916F915F914F9189
:1017A0003F912F911F910F91FF90EF90DF90CF907D
:1017B000BF90AF909F908F907F906F905F904F9071
:1017C0003F902F901F900F900FBE0F9008950F9293
:1017D0000FB6F8940F921F9211242F923F924F92BE
:1017E0005F926F927F928F929F92AF92BF92CF92B1
:1017F000DF92EF92FF920F931F932F933F934F939C
:101800005F936F937F938F939F93AF93BF93CF9388
:10181000DF93EF93FF93A0914105B09142050DB680
:101820000D920EB60D920E944818882311F00E9466
:101830002F19A0914105B0914205CD91CDBFDD9109
:10184000DEBFFF91EF91DF91CF91BF91AF919F915B
:101850008F917F916F915F914F913F912F911F9148
:101860000F91FF90EF90DF90CF90BF90AF909F903F
:101870008F907F906F905F904F903F902F901F9030
:101880000F900FBE0F900895DF93CF9300D000D03C
:1018900000D0CDB7DEB780E49FE1A0E0B0E08B835D
:1018A0009C83AD83BE838B819C81AD81BE81689416
:1018B00015F8B695A795979587951694D1F78B83CC
:1018C0009C83AD83BE838B819C81AD81BE8101975A
:1018D000A109B1098B839C83AD83BE838B818983EE
:1018E0008B819C81AD81BE81892F9A2FAB2FBB2725
:1018F0008B839C83AD83BE838B818A83EBE4F0E092
:101900008A818083EAE4F0E0898180838BE08983A7
:10191000EEE4F0E089818083E9E5F0E0808189836D
:10192000898180618983E9E5F0E089818083269659
:101930000FB6F894DEBF0FBECDBFCF91DF910895F3
:101940000E94E70B1895DF93CF9300D000D00F9241
:10195000CDB7DEB79C838B836D838B819C819A830B
:1019600089830FB6F8940F92E981FA814081518101
:10197000E981FA81838D282F30E0E981FA81848D15
:10198000882F90E0BC01269FC001279F900D369FB5
:10199000900D1124840F951FE981FA81938382832E
:1019A000E981FA81128EE981FA8180819181E98150
:1019B000FA8195838483E981FA8140815181E981AB
:1019C000FA81838D882F90E09C0121503040E9817D
:1019D000FA81848D882F90E0BC01269FC001279F4B
:1019E000900D369F900D1124840F951FE981FA8187
:1019F00097838683E981FA818FEF858FE981FA8168
:101A00008FEF868F8D81882379F4E981FA81808533
:101A10008823A1F089819A8108960E94101A81304A
:101A200069F40E948E0B0AC089819A8108960E94EF
:101A3000990889819A8141960E9499080F900FBE5A
:101A400081E00F900F900F900F900F90CF91DF914A
:101A50000895DF93CF93CDB7DEB729970FB6F894EB
:101A6000DEBF0FBECDBF8F83688749871A82198278
:101A70008F81882309F43FC08FE190E00E944B07DB
:101A80009E838D838D819E810097A9F18F81282F60
:101A900030E08885882F90E0AC01249FC001259F0D
:101AA000900D349F900D112401969C838B838B8124
:101AB0009C810E944B07ED81FE8191838083ED81A3
:101AC000FE8180819181009791F0ED81FE818F816F
:101AD000838FED81FE818885848F8D819E8161E079
:101AE0000E94A30C8D819E819A83898304C08D817D
:101AF0009E810E94A10789819A8129960FB6F89448
:101B0000DEBF0FBECDBFCF91DF910895DF93CF939E
:101B100000D00F92CDB7DEB78B838FE190E00E94AB
:101B20004B079A83898389819A810097A9F1E9817A
:101B3000FA8113821282E981FA8111821082E9818D
:101B4000FA8115821482E981FA8117821682E9816D
:101B5000FA81128EE981FA8181E0838FE981FA812D
:101B6000148EE981FA818FEF858FE981FA818FEFF9
:101B7000868F89819A8108960E94990889819A8125
:101B800041960E94990889819A8160E070E040E066
:101B900050E020E00E94F40D89819A810F900F900F
:101BA0000F90CF91DF910895DF93CF9300D000D0B5
:101BB000CDB7DEB78B836C838B8160E042E00E94FF
:101BC000290D9A83898389819A81009721F0E9817F
:101BD000FA818C81828F89819A810F900F900F906A
:101BE0000F90CF91DF910895DF93CF93CDB7DEB7FC
:101BF0002F970FB6F894DEBF0FBECDBF99878887A9
:101C00007B876A875D874C872E871C8288859985AC
:101C10009A8389830FB6F8940F92E981FA81928DA5
:101C2000E981FA81838D981718F08E85823011F53D
:101C300089819A812A853B85B9014E850E94E610EB
:101C40008B83E981FA818189882351F089819A8186
:101C500041960E94101A813041F40E948E0B05C0FB
:101C60008B81882311F00E948E0B0F900FBE81E0B4
:101C70008F875CC08C859D85009721F40F900FBEE7
:101C80001F8654C08C81882331F4CE0105960E94B2
:101C9000E01A81E08C830F900FBE0E947D170FB673
:101CA000F8940F92E981FA81858D8F3F19F4E981CB
:101CB000FA81158EE981FA81868D8F3F19F4E981C9
:101CC000FA81168E0F900FBECE0105969E01245FFD
:101CD0003F4FB9010E94F91A882309F589819A8139
:101CE0000E946F128823A1F089819A8108962C8521
:101CF0003D85B9010E94981989819A810E94E61157
:101D00000E948917882309F085CF0E948E0B82CF0D
:101D100089819A810E94E6110E9489177BCF89816F
:101D20009A810E94E6110E9489171F868F852F963F
:101D30000FB6F894DEBF0FBECDBFCF91DF910895EF
:101D4000DF93CF93CDB7DEB72B970FB6F894DEBFF6
:101D50000FBECDBF9E838D8378876F835A87498757
:101D60002B878D819E819A8389831B82E981FA81E9
:101D7000928DE981FA81838D981718F08B858230D6
:101D8000B1F589819A812F813885B9014B850E94EF
:101D9000E610882341F089859A85009721F0E9852E
:101DA000FA8581E08083E981FA81868D8F3FA9F4ED
:101DB000E981FA8181898823B9F089819A814196E4
:101DC0000E94101A882381F089859A85009761F016
:101DD000E985FA8581E0808307C0E981FA81868DF3
:101DE0008F5FE981FA81868F81E08C8301C01C823C
:101DF0008C812B960FB6F894DEBF0FBECDBFCF916E
:101E0000DF910895DF93CF93CDB7DEB760970FB61C
:101E1000F894DEBF0FBECDBF9A8789877C876B871A
:101E20005E874D872F871D8289859A859A8389834E
:101E30000FB6F8940F92E981FA81828D882309F414
:101E40004BC0E981FA81868197819C838B8389814C
:101E50009A812B853C85B9010E949F118F8588232B
:101E600011F5E981FA81828D8150E981FA81828FB1
:101E7000E981FA8180819181009731F40E94701E7E
:101E8000E981FA8193838283E981FA8180858823BD
:101E9000F1F089819A8108960E94101A8130B9F474
:101EA0000E948E0B14C0E981FA818B819C819783FB
:101EB0008683E981FA818189882349F089819A8121
:101EC00041960E94101A882311F00E948E0B0F90E9
:101ED0000FBE81E0888B6DC08D859E85009721F4B3
:101EE0000F900FBE188A65C08D81882331F4CE0112
:101EF00006960E94E01A81E08D830F900FBE0E942B
:101F00007D170FB6F8940F92E981FA81858D8F3F86
:101F100019F4E981FA81158EE981FA81868D8F3F66
:101F200019F4E981FA81168E0F900FBECE01069644
:101F30009E01235F3F4FB9010E94F91A882391F552
:101F400089819A810E943A12882329F1E981FA81D4
:101F500080819181009759F40FB6F8940F92E9812E
:101F6000FA81828193810E944C1D0F900FBE89815E
:101F70009A8141962D853E85B9010E9498198981E3
:101F80009A810E94E6110E948917882309F050CF98
:101F90000E948E0B4DCF89819A810E94E6110E948A
:101FA000891746CF89819A810E94E6110E9489177C
:101FB000188A888960960FB6F894DEBF0FBECDBF31
:101FC000CF91DF910895DF93CF93CDB7DEB72A97F6
:101FD0000FB6F894DEBF0FBECDBF9E838D8378878A
:101FE0006F835A8749878D819E819A8389831B825B
:101FF000E981FA81828D882391F189819A812F81EB
:102000003885B9010E949F11E981FA81828D815042
:10201000E981FA81828FE981FA81858D8F3FA9F468
:10202000E981FA8180858823B9F089819A810896AF
:102030000E94101A882381F089859A85009761F0A3
:10204000E985FA8581E0808307C0E981FA81858D81
:102050008F5FE981FA81858F81E08C8301C01C82CA
:102060008C812A960FB6F894DEBF0FBECDBFCF91FC
:10207000DF910895DF93CF93CDB7DEB72A970FB6E0
:10208000F894DEBF0FBECDBF98878F837A876987AC
:102090008F8198859A8389831D82E981FA81828D57
:1020A0008823B1F0E981FA81868197819C838B83B3
:1020B00089819A8129853A85B9010E949F11E98118
:1020C000FA818B819C819783868381E08E8301C016
:1020D0001E828E812A960FB6F894DEBF0FBECDBF4A
:1020E000CF91DF910895DF93CF9300D00F92CDB7BA
:1020F000DEB79B838A830FB6F8940F92EA81FB8147
:10210000828D89830F900FBE89810F900F900F9061
:10211000CF91DF910895DF93CF9300D000D00F923D
:10212000CDB7DEB79D838C838C819D819A83898313
:102130000FB6F8940F92E981FA81938DE981FA81C3
:10214000828D292F281B822F8B830F900FBE8B81AE
:102150000F900F900F900F900F90CF91DF910895F7
:10216000DF93CF9300D00F92CDB7DEB79B838A83E6
:10217000EA81FB81828D898389810F900F900F9076
:10218000CF91DF910895DF93CF9300D000D0CDB7EA
:10219000DEB79C838B838B819C819A838983E981C1
:1021A000FA8180819181009731F0E981FA81808103
:1021B00091810E94A10789819A810E94A1070F90B5
:1021C0000F900F900F90CF91DF910895DF93CF93F1
:1021D00000D000D000D0CDB7DEB79B838A837D834B
:1021E0006C834E831982EA81FB81848D882399F464
:1021F000EA81FB8180819181009709F08FC0EA819B
:10220000FB81828193810E94D71D8983EA81FB81B2
:102210001382128283C08E81882399F5EA81FB8123
:1022200064817581EA81FB81848D482F50E02C8187
:102230003D81CB01B9010E94B724EA81FB81248151
:102240003581EA81FB81848D882F90E0820F931F76
:10225000EA81FB8195838483EA81FB812481358136
:10226000EA81FB81828193812817390708F456C0DF
:10227000EA81FB8180819181EA81FB81958384835E
:102280004DC0EA81FB8166817781EA81FB81848D83
:10229000482F50E02C813D81CB01B9010E94B72429
:1022A000EA81FB8126813781EA81FB81848D882F39
:1022B00090E0909581959F4F820F931FEA81FB815B
:1022C00097838683EA81FB8126813781EA81FB81BE
:1022D000808191812817390790F4EA81FB8122815E
:1022E0003381EA81FB81848D882F90E090958195E0
:1022F0009F4F820F931FEA81FB81978386838E8194
:10230000823061F4EA81FB81828D882339F0EA8191
:10231000FB81828D8150EA81FB81828FEA81FB8182
:10232000828D8F5FEA81FB81828F898126960FB62D
:10233000F894DEBF0FBECDBFCF91DF910895DF933C
:10234000CF9300D000D0CDB7DEB79A8389837C834A
:102350006B83E981FA81848D882389F1E981FA818F
:1023600026813781E981FA81848D882F90E0820F60
:10237000931FE981FA8197838683E981FA81268117
:102380003781E981FA81828193812817390740F0EA
:10239000E981FA8180819181E981FA81978386833D
:1023A000E981FA8146815781E981FA81848D282F5C
:1023B00030E08B819C81BA01A9010E94B7240F9063
:1023C0000F900F900F90CF91DF910895DF93CF93EF
:1023D00000D0CDB7DEB79A8389830FB6F8940F92F9
:1023E00015C0E981FA8181898823A9F089819A81C0
:1023F00041960E94101A882311F00E945C1BE9810B
:10240000FA81868D8150E981FA81868FE981FA818E
:10241000868D181634F3E981FA818FEF868F0F903D
:102420000FBE0FB6F8940F9215C0E981FA8180852E
:102430008823A9F089819A8108960E94101A88231E
:1024400011F00E945C1BE981FA81858D8150E98140
:10245000FA81858FE981FA81858D181634F3E98137
:10246000FA818FEF858F0F900FBE0F900F90CF9155
:10247000DF910895DF93CF9300D00F92CDB7DEB7F1
:102480009B838A830FB6F8940F92EA81FB81828D39
:10249000882319F481E0898301C019820F900FBE4F
:1024A00089810F900F900F90CF91DF910895DF9366
:1024B000CF9300D00F92CDB7DEB79B838A83EA819A
:1024C000FB81828D882319F481E0898301C0198200
:1024D00089810F900F900F90CF91DF910895DF9336
:1024E000CF9300D00F92CDB7DEB79B838A830FB610
:1024F000F8940F92EA81FB81928DEA81FB81838DB2
:10250000981719F481E0898301C019820F900FBEDA
:1025100089810F900F900F90CF91DF910895DF93F5
:10252000CF9300D00F92CDB7DEB79B838A83EA8129
:10253000FB81928DEA81FB81838D981719F481E0EC
:10254000898301C0198289810F900F900F90CF91DC
:10255000DF910895DF93CF93CDB7DEB72A970FB6FB
:10256000F894DEBF0FBECDBF9D838C837F836E83C7
:10257000598748878C819D819A838983F8948981C2
:102580009A810E946F128823A9F088859985009707
:1025900071F089819A819C01285F3F4F88859985D8
:1025A000B9010E94C70178948CEF8A872AC0789479
:1025B0001A8627C07894F894E981FA81928DE9818E
:1025C000FA81838D9817C8F489819A812E813F8181
:1025D000B90140E00E94E61081E08B83E981FA8135
:1025E0008189882359F089819A8141960E94D30379
:1025F000882321F08BEF8B8301C01B8278948B8121
:102600008A878A852A960FB6F894DEBF0FBECDBFA3
:10261000CF91DF910895DF93CF93CDB7DEB72A979F
:102620000FB6F894DEBF0FBECDBF9D838C837F8332
:102630006E83598748878C819D819A838983F8941A
:10264000E981FA81828D8823A9F48885998500978C
:1026500071F089819A819C012F5E3F4F8885998511
:10266000B9010E94C70178948CEF8A8758C078948A
:102670001A8655C07894F894E981FA81828D88236E
:1026800009F449C0E981FA8126813781E981FA811B
:10269000848D882F90E0820F931FE981FA819783C0
:1026A0008683E981FA8126813781E981FA818281F5
:1026B00093812817390740F0E981FA81808191815F
:1026C000E981FA8197838683E981FA81828D81503D
:1026D000E981FA81828FE981FA8146815781E98116
:1026E000FA81848D282F30E08E819F81BA01A90163
:1026F0000E94B72481E08B83E981FA818085882359
:1027000059F089819A8108960E94D303882321F089
:102710008BEF8B8301C01B8278948B818A878A859B
:102720002A960FB6F894DEBF0FBECDBFCF91DF91D2
:102730000895DF93CF93CDB7DEB728970FB6F894FF
:10274000DEBF0FBECDBF9C838B837E836D834F83A3
:102750008B819C819A838983E981FA81928DE981B9
:10276000FA81838D9817D0F489819A812D813E81D9
:10277000B90140E00E94E6108F81882379F4E98155
:10278000FA818189882351F089819A8141960E943A
:10279000D303882319F081E0888702C08F8188875E
:1027A000888528960FB6F894DEBF0FBECDBFCF91B7
:1027B000DF910895DF93CF93CDB7DEB729970FB69A
:1027C000F894DEBF0FBECDBF9D838C837F836E8365
:1027D000598748878C819D819A838983E981FA8111
:1027E000828D882309F450C0E981FA8126813781DE
:1027F000E981FA81848D882F90E0820F931FE9810F
:10280000FA8197838683E981FA8126813781E9817C
:10281000FA81828193812817390740F0E981FA8192
:1028200080819181E981FA8197838683E981FA81A8
:10283000828D8150E981FA81828FE981FA81468116
:102840005781E981FA81848D282F30E08E819F8124
:10285000BA01A9010E94B724E885F98580818823FF
:1028600081F4E981FA818085882359F089819A81F0
:1028700008960E94D303882321F0E885F98581E03A
:10288000808381E08B8301C01B828B8129960FB6E8
:10289000F894DEBF0FBECDBFCF91DF910895AF9208
:1028A000BF92CF92DF92EF92FF920F931F93DF932D
:1028B000CF93CDB7DEB764970FB6F894DEBF0FBEE7
:1028C000CDBF9F838E83798768875B874A873D87E3
:1028D0002C870E87F88AEF86DA8AC98ABC8AAB8A87
:1028E0008A859B8529893A89B9010E94B51C9C83F8
:1028F0008B838B819C81009709F48DC0EB81FC81D7
:102900002789308D8A859B850197820F931F9A8333
:1029100089838B819C8128853985EB89FC89AA85EF
:10292000BB85B9014E859F018D010E94761B89816F
:102930009A812E813F814C855D85B9010E94CF0926
:10294000EB81FC81918380838F859889009731F09A
:10295000EF85F8898B819C81918380830FB6F894F1
:102960000F92809144058F5F8093440580914105CB
:1029700090914205009769F48B819C819093420568
:1029800080934105809144058130A9F40E94F01B99
:1029900012C080914805882371F4E0914105F091BF
:1029A000420596898E85891730F08B819C819093A2
:1029B00042058093410580914C058F5F80934C05C3
:1029C000EB81FC81968980914705891728F4EB817A
:1029D000FC81868980934705EB81FC818689282FBD
:1029E00030E0C901880F991F880F991F880F991F20
:1029F000820F931FAC01425B5A4F8B819C819C01DB
:102A00002E5F3F4FCA01B9010E94D30881E08D8338
:102A10000F900FBE02C08FEF8D838D81813071F4D6
:102A200080914805882351F0E0914105F0914205DD
:102A300096898E85981710F40E948E0B8D8164966E
:102A40000FB6F894DEBF0FBECDBFCF91DF911F91BF
:102A50000F91FF90EF90DF90CF90BF90AF900895CF
:102A6000DF93CF9300D000D000D0CDB7DEB79C83EA
:102A70008B830FB6F8940F928B819C81009739F469
:102A800080914105909142059E838D8304C08B8186
:102A90009C819E838D838D819E819A838983898188
:102AA0009A8102960E948309E981FA818489958935
:102AB000009729F089819A810C960E948309898167
:102AC0009A819C012E5F3F4F81E995E0B9010E94F8
:102AD000D308809143058F5F8093430580914C0517
:102AE0008F5F80934C050F900FBE8091480588231F
:102AF00099F0209141053091420589819A81821790
:102B0000930719F40E948E0B07C00FB6F8940F922A
:102B10000E940F1D0F900FBE26960FB6F894DEBFD1
:102B20000FBECDBFCF91DF910895DF93CF93CDB787
:102B3000DEB72A970FB6F894DEBF0FBECDBF9887D9
:102B40008F837A8769871B820E947D178091450554
:102B5000909146059A838983EF81F88520813181A0
:102B600089859A85820F931F9E838D83EF81F885D7
:102B70002081318189819A818217930798F4EF81AE
:102B8000F885208131818D819E8182179307E0F441
:102B90002D813E8189819A8182179307A8F481E073
:102BA0008B8312C0EF81F885208131818D819E81D8
:102BB0008217930738F02D813E8189819A8182178F
:102BC000930710F481E08B83EF81F8858D819E81DE
:102BD000918380838B81882359F080914105909166
:102BE000420502960E9483098D819E810E946C1C81
:102BF0000E9489178C838C81882311F40E948E0B8C
:102C00002A960FB6F894DEBF0FBECDBFCF91DF91ED
:102C10000895DF93CF9300D000D00F92CDB7DEB7E9
:102C20009D838C8319828C819D810097D1F00E94B5
:102C30007D1720914505309146058C819D81820F3D
:102C4000931F9B838A838091410590914205029650
:102C50000E9483098A819B810E946C1C0E948917B3
:102C600089838981882311F40E948E0B0F900F9025
:102C70000F900F900F90CF91DF910895DF93CF9336
:102C8000CDB7DEB727970FB6F894DEBF0FBECDBF26
:102C90009D838C830FB6F8940F928C819D81009751
:102CA00039F480914105909142059F838E8304C041
:102CB0008C819D819F838E838E819F819B838A835C
:102CC000EA81FB81868989830F900FBE89812796CF
:102CD0000FB6F894DEBF0FBECDBFCF91DF91089540
:102CE000DF93CF93CDB7DEB72A970FB6F894DEBF48
:102CF0000FBECDBF9F838E836887198288858430FD
:102D000010F083E088870FB6F8940F928E819F8130
:102D1000009739F480914105909142059A878987FF
:102D200004C08E819F819A87898789859A859D8332
:102D30008C83EC81FD8185A58B839B818885981789
:102D400009F48DC098858B818917A0F420914105E5
:102D5000309142058C819D8182179307B1F0E091FB
:102D60004105F091420596898885891770F081E0C8
:102D700089830BC020914105309142058C819D8152
:102D80008217930711F481E08983EC81FD818689A4
:102D90008A83EC81FD8195A5EC81FD818689981758
:102DA00021F4EC81FD818885868BEC81FD8188850D
:102DB00085A7EC81FD818485958599235CF08885C4
:102DC000282F30E084E090E0821B930BEC81FD81A2
:102DD00095878487EC81FD81428553858A81282FE0
:102DE00030E0C901880F991F880F991F880F991F1C
:102DF000820F931F825B9A4F4817590759F58C81B0
:102E00009D8102960E948309EC81FD8196898091C3
:102E10004705891728F4EC81FD8186898093470551
:102E2000EC81FD818689282F30E0C901880F991F28
:102E3000880F991F880F991F820F931FAC01425B67
:102E40005A4F8C819D819C012E5F3F4FCA01B90171
:102E50000E94D3088981813011F40E948E0B0F905B
:102E60000FBE2A960FB6F894DEBF0FBECDBFCF912E
:102E7000DF910895AF92BF92CF92DF92EF92FF92CF
:102E80000F93DF93CF930F92CDB7DEB786E69BE12A
:102E900028E730E0B90145E550E020E030E000E00F
:102EA000EE24FF24CC24DD24AA24BB240E944F144A
:102EB00089838981813051F4F89481E080934805B9
:102EC00010924605109245050E94520B0F90CF912B
:102ED000DF910F91FF90EF90DF90CF90BF90AF9078
:102EE0000895DF93CF93CDB7DEB7F89410924805DD
:102EF0000E94870BCF91DF910895DF93CF93CDB7D9
:102F0000DEB780914D058F5F80934D05CF91DF91A6
:102F10000895DF93CF9300D00F92CDB7DEB719821B
:102F20000FB6F8940F9280914D05815080934D0516
:102F300080914D05882309F06DC080914405882358
:102F400009F468C045C0E0918D05F0918E05868139
:102F500097819B838A838A819B810C960E94830937
:102F60008A819B8102960E948309EA81FB8196896E
:102F700080914705891728F4EA81FB81868980932F
:102F80004705EA81FB818689282F30E0C901880F37
:102F9000991F880F991F880F991F820F931FAC01EB
:102FA000425B5A4F8A819B819C012E5F3F4FCA0131
:102FB000B9010E94D308EA81FB819689E09141051D
:102FC000F09142058689981718F081E080934A05B0
:102FD00080918805882309F0B6CF80914905882320
:102FE00089F00CC00E944818882319F081E0809372
:102FF0004A05809149058150809349058091490592
:10300000882381F780914A05813021F481E089830A
:103010000E948E0B0F900FBE89810F900F900F9022
:10302000CF91DF910895DF93CF9300D0CDB7DEB776
:103030000FB6F8940F9280914505909146059A83BA
:1030400089830F900FBE89819A810F900F90CF9145
:10305000DF910895DF93CF9300D00F92CDB7DEB705
:10306000198280914505909146059B838A838A81C8
:103070009B810F900F900F90CF91DF910895DF9378
:10308000CF93CDB7DEB780914405CF91DF910895FE
:10309000DF93CF93CDB7DEB729970FB6F894DEBF95
:1030A0000FBECDBF1D8280914D05882309F0C2C09F
:1030B0008091450590914605019690934605809331
:1030C000450580914505909146059C838B838B81B6
:1030D0009C810097D9F480918405909185059A830D
:1030E00089838091860590918705909385058093CB
:1030F000840589819A8190938705809386058091C4
:103100004B058F5F80934B050E940F1D20917D0022
:1031100030917E008B819C818217930708F471C0E7
:10312000E0918405F09185058081882339F48FEF43
:103130009FEF90937E0080937D0063C0E0918405B3
:10314000F09185050580F681E02D8681978199872C
:103150008887E885F985828193819F838E832B817F
:103160003C818E819F812817390738F48E819F8199
:1031700090937E0080937D0044C088859985029657
:103180000E948309E885F98584899589009729F04B
:10319000888599850C960E948309E885F98596892A
:1031A00080914705891728F4E885F98586898093F9
:1031B0004705E885F9858689282F30E0C901880F01
:1031C000991F880F991F880F991F820F931FAC01B9
:1031D000425B5A4F888599859C012E5F3F4FCA01FB
:1031E000B9010E94D308E885F9859689E0914105E7
:1031F000F09142058689981708F492CF81E08D837B
:103200008FCFE0914105F09142058689282F30E06B
:10321000C901880F991F880F991F880F991F820F66
:10322000931FFC01E25BFA4F8081823040F081E025
:103230008D8305C0809149058F5F809349058091FA
:103240004A05882311F081E08D838D8129960FB680
:10325000F894DEBF0FBECDBFCF91DF910895DF930D
:10326000CF9300D0CDB7DEB780914D05882321F0F4
:1032700081E080934A0557C010924A0505C08091AD
:10328000470581508093470580914705282F30E0FE
:10329000C901880F991F880F991F880F991F820FE6
:1032A000931FFC01E25BFA4F8081882341F38091F8
:1032B0004705282F30E0C901880F991F880F991FF3
:1032C000880F991F820F931F825B9A4F9A8389837D
:1032D000E981FA810180F281E02D82819381E98187
:1032E000FA8192838183E981FA8121813281898106
:1032F0009A8103962817390759F4E981FA810180E8
:10330000F281E02D82819381E981FA819283818328
:10331000E981FA810180F281E02D86819781909385
:103320004205809341050F900F90CF91DF91089552
:10333000DF93CF9300D000D000D0CDB7DEB79C8311
:103340008B837E836D8380914105909142059C0122
:10335000245F3F4F8B819C81B9010E9417098091A6
:1033600041059091420502960E94830920914505EE
:10337000309146058D819E81820F931F9A838983A8
:1033800089819A810E946C1C26960FB6F894DEBF44
:103390000FBECDBFCF91DF910895DF93CF93CDB70F
:1033A000DEB728970FB6F894DEBF0FBECDBF9C8363
:1033B0008B837E836D8358874F83E0914105F09125
:1033C00042058D819E819068958784878091410513
:1033D000909142059C01245F3F4F8B819C81B901F4
:1033E0000E94D308809141059091420502960E9467
:1033F000830920914505309146058F819885820F7C
:10340000931F9A83898389819A810E946C1C2896D4
:103410000FB6F894DEBF0FBECDBFCF91DF910895F8
:10342000DF93CF9300D000D00F92CDB7DEB79D834E
:103430008C83EC81FD810580F681E02D868197816A
:103440009B838A838A819B810C960E948309809149
:103450004D05882361F58A819B8102960E9483092C
:10346000EA81FB81968980914705891728F4EA81D2
:10347000FB81868980934705EA81FB818689282F15
:1034800030E0C901880F991F880F991F880F991F75
:10349000820F931FAC01425B5A4F8A819B819C0132
:1034A0002E5F3F4FCA01B9010E94D3080AC08A812A
:1034B0009B819C01245F3F4F88E895E0B9010E9401
:1034C000D308EA81FB819689E0914105F09142059C
:1034D0008689891730F481E0898381E080934A05E9
:1034E00001C0198289810F900F900F900F900F905B
:1034F000CF91DF910895DF93CF93CDB7DEB72797B4
:103500000FB6F894DEBF0FBECDBF9D838C837F8343
:103510006E838E819F819068EC81FD819183808391
:10352000EC81FD81868197819B838A838C819D813B
:103530000E9483098A819B8102960E948309EA8105
:10354000FB81968980914705891728F4EA81FB81E0
:10355000868980934705EA81FB818689282F30E0A0
:10356000C901880F991F880F991F880F991F820F13
:10357000931FAC01425B5A4F8A819B819C012E5F55
:103580003F4FCA01B9010E94D308EA81FB819689A5
:10359000E0914105F09142058689891730F481E078
:1035A000898381E080934A0501C019828981279629
:1035B0000FB6F894DEBF0FBECDBFCF91DF91089557
:1035C000DF93CF9300D0CDB7DEB79A838983809104
:1035D0004B05E981FA8180838091450590914605EC
:1035E000E981FA81928381830F900F90CF91DF91CF
:1035F0000895DF93CF93CDB7DEB727970FB6F89432
:10360000DEBF0FBECDBF9D838C837F836E830FB6DD
:10361000F8940F9280914505909146059A8389838D
:10362000EC81FD81908180914B05981761F0EC81D0
:10363000FD812181328189819A818217930718F057
:1036400081E08B832DC0EC81FD81218132818981D4
:103650009A81AC01421B530B9A01EE81FF8180815C
:10366000918128173907D0F4EE81FF814081518183
:10367000EC81FD812181328189819A81B901681BA8
:10368000790BCB01840F951FEE81FF81918380839D
:103690008C819D810E94E01A1B8202C081E08B8395
:1036A0000F900FBE8B8127960FB6F894DEBF0FBE2A
:1036B000CDBFCF91DF910895DF93CF93CDB7DEB724
:1036C00081E080934A05CF91DF910895DF93CF93F6
:1036D00000D0CDB7DEB79A8389830E942D1C8091DC
:1036E0004E058230D0F30E948E0BF7CF0F931F93BD
:1036F000DF93CF93CDB7DEB72A970FB6F894DEBF2E
:103700000FBECDBF9B838A837D836C834E833887B6
:103710002F831A870987198221C08981482F50E099
:103720008981282F30E08C819D81FC01E20FF31FFD
:1037300020818A819B81840F951FFC0179962083CB
:103740008981282F30E08C819D81FC01E20FF31FDD
:103750008081882331F089818F5F898389818431D9
:10376000E0F2EA81FB8114A68E81843010F083E0C0
:103770008E83EA81FB818E81868BEA81FB818E813B
:1037800085A7EA81FB8116A68A819B8102960E9409
:10379000C3088A819B810C960E94C308EA81FB8141
:1037A0008A819B81918780878E81282F30E084E0F9
:1037B00090E0821B930BEA81FB8195878487EA81E5
:1037C000FB818A819B81938B828B2A960FB6F8941A
:1037D000DEBF0FBECDBFCF91DF911F910F91089536
:1037E000DF93CF930F92CDB7DEB7198213C08981D3
:1037F000282F30E0C901880F991F880F991F880F63
:10380000991F820F931F825B9A4F0E9499088981AA
:103810008F5F89838981843050F382E795E00E942D
:1038200099088BE795E00E94990888E895E00E9446
:10383000990881E995E00E94990882E795E09093C4
:103840008505809384058BE795E0909387058093A9
:1038500086050F90CF91DF910895DF93CF9300D02D
:103860000F92CDB7DEB72EC00E947D1780919105D3
:103870001B82882311F481E08B830E9489178B813E
:10388000882301F50FB6F8940F92E0919605F09118
:103890009705868197819A83898389819A81029687
:1038A0000E94830980914405815080934405809152
:1038B00043058150809343050F900FBE89819A8103
:1038C0000E94F91C80914305882371F60F900F9098
:1038D0000F90CF91DF910895DF93CF9300D0CDB7B4
:1038E000DEB79A838983E0914105F0914205898191
:1038F0009A81938382832091450530914605898181
:103900009A818217930770F48091860590918705BC
:1039100020914105309142052E5F3F4FB9010E9431
:1039200017091EC04091840550918505809141057D
:10393000909142059C012E5F3F4FCA01B9010E9440
:10394000170920917D0030917E0089819A8182172C
:10395000930730F489819A8190937E0080937D0053
:103960000F900F90CF91DF910895DF93CF93CDB754
:10397000DEB728970FB6F894DEBF0FBECDBF9C838D
:103980008B837E836D838FE290E00E944B079A8346
:10399000898389819A81009709F18D819E810097A1
:1039A00039F48B819C810E944B0798878F8304C0D8
:1039B0008D819E8198878F83E981FA818F81988597
:1039C000908F878BE981FA818789908D009731F4F8
:1039D00089819A810E94A1071A82198289819A811C
:1039E00028960FB6F894DEBF0FBECDBFCF91DF9102
:1039F0000895DF93CF9300D0CDB7DEB79A83898344
:103A0000E981FA818789908D0E94A10789819A8135
:103A10000E94A1070F900F90CF91DF910895DF933F
:103A2000CF9300D0CDB7DEB7E0918405F091850546
:103A30008081882339F48FEF9FEF90937E008093ED
:103A40007D0013C0E0918405F09185050580F68125
:103A5000E02D868197819A838983E981FA81828129
:103A6000938190937E0080937D000F900F90CF9173
:103A7000DF910895DF93CF9300D0CDB7DEB780916B
:103A80004105909142059A83898389819A810F909B
:103A90000F90CF91DF910895DF93CF9300D000D0A6
:103AA000CDB7DEB79C838B838B819C819A8389837E
:103AB0008B819C81009709F473C0E981FA81968912
:103AC000E0914105F09142058689981708F068C099
:103AD000E981FA818485958599237CF0E0914105FF
:103AE000F09142058689282F30E084E090E0821B27
:103AF000930BE981FA8195878487E981FA81428570
:103B00005385E981FA818689282F30E0C901880F21
:103B1000991F880F991F880F991F820F931F825B2F
:103B20009A4F48175907A1F589819A8102960E94F8
:103B30008309E0914105F09142058689E981FA8186
:103B4000868BE981FA81968980914705891728F447
:103B5000E981FA81868980934705E981FA8186891E
:103B6000282F30E0C901880F991F880F991F880FEF
:103B7000991F820F931FAC01425B5A4F89819A8132
:103B80009C012E5F3F4FCA01B9010E94D30808C0B3
:103B9000E0914105F09142058689E981FA81868BA1
:103BA0000F900F900F900F90CF91DF910895DF93BA
:103BB000CF9300D000D00F92CDB7DEB79D838C831A
:103BC0008C819D819B838A8319828C819D81009742
:103BD00009F456C0EA81FB8186A58150EA81FB8108
:103BE00086A7EA81FB819689EA81FB8185A59817E2
:103BF00009F446C0EA81FB8186A5882309F040C00C
:103C00008A819B8102960E948309EA81FB8185A5B6
:103C1000EA81FB81868BEA81FB818689282F30E04F
:103C200084E090E0821B930BEA81FB819587848777
:103C3000EA81FB81968980914705891728F4EA81FA
:103C4000FB81868980934705EA81FB818689282F3D
:103C500030E0C901880F991F880F991F880F991F9D
:103C6000820F931FAC01425B5A4F8A819B819C015A
:103C70002E5F3F4FCA01B9010E94D30881E08983BA
:103C800089810F900F900F900F900F90CF91DF913F
:103C90000895DF93CF9300D0CDB7DEB7E091410513
:103CA000F0914205848595859A838983A091410589
:103CB000B0914205E0914105F09142058689282F97
:103CC00030E084E090E0821B930B1D969C938E93D2
:103CD0001C9789819A810F900F90CF91DF91089561
:103CE000DF93CF93CDB7DEB7809141059091420528
:103CF000009739F0E0914105F091420586A58F5F6C
:103D000086A78091410590914205CF91DF9108955A
:103D1000DF93CF93CDB7DEB7EAE3F0E08FEF808398
:103D2000E7E3F0E08FEF8083E4E3F0E087EF808368
:103D3000E1E3F0E08FEF8083EBE3F0E01082E8E373
:103D4000F0E01082E5E3F0E088E08083E2E3F0E079
:103D50001082CF91DF910895DF93CF93CDB7DEB777
:103D600028970FB6F894DEBF0FBECDBF8A836B8352
:103D70004C8381E089838A81843008F0F2C08B8192
:103D8000883008F0EEC019828C81882309F06FC05A
:103D90008A81282F30E038872F838F819885813062
:103DA000910549F12F813885223031052CF48F811E
:103DB0009885009761F0D5C02F8138852230310574
:103DC00071F18F81988583309105E9F1CAC0AAE32A
:103DD000B0E0EAE3F0E08081482F8B81282F30E0CB
:103DE00081E090E0022E02C0880F991F0A94E2F74A
:103DF000842B8C93B6C0A7E3B0E0E7E3F0E08081CA
:103E0000482F8B81282F30E081E090E0022E02C005
:103E1000880F991F0A94E2F7842B8C93A2C0A4E325
:103E2000B0E0E4E3F0E08081482F8B81282F30E080
:103E300081E090E0022E02C0880F991F0A94E2F7F9
:103E4000842B8C938EC0A1E3B0E0E1E3F0E08081AD
:103E5000482F8B81282F30E081E090E0022E02C0B5
:103E6000880F991F0A94E2F7842B8C937AC08C8177
:103E7000813009F074C08A81282F30E03E832D8381
:103E80008D819E818130910559F12D813E812230B5
:103E900031052CF48D819E81009769F062C02D81DF
:103EA0003E812230310589F18D819E8183309105DB
:103EB00009F440C056C0AAE3B0E0EAE3F0E0808134
:103EC000482F8B81282F30E081E090E0022E02C045
:103ED000880F991F0A94E2F7809584238C9341C040
:103EE000A7E3B0E0E7E3F0E08081482F8B81282F43
:103EF00030E081E090E0022E02C0880F991F0A9402
:103F0000E2F7809584238C932CC0A4E3B0E0E4E333
:103F1000F0E08081482F8B81282F30E081E090E015
:103F2000022E02C0880F991F0A94E2F7809584231D
:103F30008C9317C0A1E3B0E0E1E3F0E08081482F6B
:103F40008B81282F30E081E090E0022E02C0880FA4
:103F5000991F0A94E2F7809584238C9302C081E034
:103F60008983898128960FB6F894DEBF0FBECDBF36
:103F7000CF91DF910895DF93CF93CDB7DEB7289728
:103F80000FB6F894DEBF0FBECDBF8A836B834C8320
:103F900081E089838A81843008F0F2C08B81883087
:103FA00008F0EEC019828C81813009F06FC08A81DF
:103FB000282F30E038872F838F81988581309105B5
:103FC00049F12F813885223031052CF48F81988575
:103FD000009761F0D5C02F8138852230310571F10D
:103FE0008F81988583309105E9F1CAC0ABE3B0E0D9
:103FF000EBE3F0E08081482F8B81282F30E081E0D7
:1040000090E0022E02C0880F991F0A94E2F7842BD9
:104010008C93B6C0A8E3B0E0E8E3F0E08081482FDD
:104020008B81282F30E081E090E0022E02C0880FC3
:10403000991F0A94E2F7842B8C93A2C0A5E3B0E009
:10404000E5E3F0E08081482F8B81282F30E081E08C
:1040500090E0022E02C0880F991F0A94E2F7842B89
:104060008C938EC0A2E3B0E0E2E3F0E08081482FC1
:104070008B81282F30E081E090E0022E02C0880F73
:10408000991F0A94E2F7842B8C937AC08C81882341
:1040900009F074C08A81282F30E03E832D838D8102
:1040A0009E818130910559F12D813E81223031056B
:1040B0002CF48D819E81009769F062C02D813E8134
:1040C0002230310589F18D819E818330910509F47B
:1040D00040C056C0ABE3B0E0EBE3F0E08081482F96
:1040E0008B81282F30E081E090E0022E02C0880F03
:1040F000991F0A94E2F7809584238C9341C0A8E32A
:10410000B0E0E8E3F0E08081482F8B81282F30E099
:1041100081E090E0022E02C0880F991F0A94E2F716
:10412000809584238C932CC0A5E3B0E0E5E3F0E018
:104130008081482F8B81282F30E081E090E0022E93
:1041400002C0880F991F0A94E2F7809584238C930C
:1041500017C0A2E3B0E0E2E3F0E08081482F8B815A
:10416000282F30E081E090E0022E02C0880F991FD6
:104170000A94E2F7809584238C9302C081E08983BE
:10418000898128960FB6F894DEBF0FBECDBFCF91C0
:10419000DF910895DF93CF93CDB7DEB727970FB6A2
:1041A000F894DEBF0FBECDBF8A836B835D834C83E3
:1041B00081E089838A81843008F07AC08B818830DD
:1041C00008F076C08C819D81009709F471C0198236
:1041D0008A81282F30E03F832E834E815F814130DA
:1041E000510559F18E819F818230910534F42E81E1
:1041F0003F812115310569F05BC04E815F814230FE
:10420000510579F18E819F818330910509F43DC07C
:104210004FC0E9E3F0E08081282F30E08B81882FC8
:1042200090E0A90102C0559547958A95E2F7CA0129
:104230008170EC81FD8180833BC0E6E3F0E080810A
:10424000282F30E08B81882F90E0A90102C055957E
:1042500047958A95E2F7CA018170EC81FD818083E0
:1042600027C0E3E3F0E08081282F30E08B81882FA6
:1042700090E0A90102C0559547958A95E2F7CA01D9
:104280008170EC81FD81808313C0E0E3F0E08081E8
:10429000282F30E08B81882F90E0A90102C055952E
:1042A00047958A95E2F7CA018170EC81FD81808390
:1042B000898127960FB6F894DEBF0FBECDBFCF9190
:1042C000DF910895DF93CF9300D000D00F92CDB748
:1042D000DEB78A836B8381E089838A81843008F02A
:1042E00073C08B81883008F06FC019828A81282FB3
:1042F00030E03D832C838C819D818130910549F193
:104300002C813D81223031052CF48C819D810097D8
:1043100061F05AC02C813D812230310571F18C81D0
:104320009D8183309105E9F14FC0ABE3B0E0EBE351
:10433000F0E08081482F8B81282F30E081E090E0F1
:10434000022E02C0880F991F0A94E2F784278C93EB
:104350003BC0A8E3B0E0E8E3F0E08081482F8B8128
:10436000282F30E081E090E0022E02C0880F991FD4
:104370000A94E2F784278C9327C0A5E3B0E0E5E335
:10438000F0E08081482F8B81282F30E081E090E0A1
:10439000022E02C0880F991F0A94E2F784278C939B
:1043A00013C0A2E3B0E0E2E3F0E08081482F8B810C
:1043B000282F30E081E090E0022E02C0880F991F84
:1043C0000A94E2F784278C9389810F900F900F90C5
:1043D0000F900F90CF91DF910895DF93CF9300D08E
:1043E00000D00F92CDB7DEB78A836B8381E08983DB
:1043F0008A81843098F519828A81282F30E03D83A4
:104400002C838C819D8181309105D1F02C813D815F
:10441000223031052CF48C819D81009761F01EC003
:104420002C813D812230310581F08C819D8183304A
:10443000910581F013C0EAE3F0E08B8180830EC028
:10444000E7E3F0E08B81808309C0E4E3F0E08B8157
:10445000808304C0E1E3F0E08B81808389810F9049
:104460000F900F900F900F90CF91DF910895DF93F1
:10447000CF9300D000D00F92CDB7DEB78A836B8385
:1044800081E089838A81843098F519828A81282F76
:1044900030E03D832C838C819D8181309105D1F06A
:1044A0002C813D81223031052CF48C819D81009737
:1044B00061F01EC02C813D812230310581F08C815C
:1044C0009D818330910581F013C0EBE3F0E08B8197
:1044D00080830EC0E8E3F0E08B81808309C0E5E3D0
:1044E000F0E08B81808304C0E2E3F0E08B81808385
:1044F00089810F900F900F900F900F90CF91DF91C7
:104500000895DF93CF93CDB7DEB728970FB6F89411
:10451000DEBF0FBECDBF8A836B834C8381E089836E
:104520008A81833008F041C18B81873008F03DC11A
:1045300019828C81813009F0BEC08A81282F30E039
:1045400038872F838F8198858130910509F43EC08B
:104550002F813885223031052CF48F819885009782
:1045600071F023C12F8138852230310509F455C0FF
:104570008F8198858330910509F476C016C1AAE32E
:10458000B0E0EAE3F0E08081482F8B81282F30E013
:1045900081E090E002C0880F991F2A95E2F780958C
:1045A00084238C93ABE3B0E0EBE3F0E08081482F11
:1045B0008B81282F30E081E090E0022E02C0880F2E
:1045C000991F0A94E2F7842B8C93EFC0A7E3B0E025
:1045D000E7E3F0E08081482F8B81282F30E081E0F5
:1045E00090E002C0880F991F2A95E2F780958423F6
:1045F0008C93A8E3B0E0E8E3F0E08081482F8B8162
:10460000282F30E081E090E0022E02C0880F991F31
:104610000A94E2F7842B8C93C8C0A4E3B0E0E4E3EF
:10462000F0E08081482F8B81282F30E081E090E0FE
:1046300002C0880F991F2A95E2F7809584238C93F6
:10464000A5E3B0E0E5E3F0E08081482F8B81282FDF
:1046500030E081E090E0022E02C0880F991F0A949A
:10466000E2F7842B8C93A1C0A1E3B0E0E1E3F0E09A
:104670008081482F8B81282F30E081E090E002C0BC
:10468000880F991F2A95E2F7809584238C93A2E3E3
:10469000B0E0E2E3F0E08081482F8B81282F30E00A
:1046A00081E090E0022E02C0880F991F0A94E2F781
:1046B000842B8C937AC08C81882309F074C08A8102
:1046C000282F30E03E832D838D819E81813091059E
:1046D00059F12D813E81223031052CF48D819E814E
:1046E000009769F062C02D813E812230310589F149
:1046F0008D819E818330910509F440C056C0ABE3A3
:10470000B0E0EBE3F0E08081482F8B81282F30E090
:1047100081E090E0022E02C0880F991F0A94E2F710
:10472000809584238C9341C0A8E3B0E0E8E3F0E0F7
:104730008081482F8B81282F30E081E090E0022E8D
:1047400002C0880F991F0A94E2F7809584238C9306
:104750002CC0A5E3B0E0E5E3F0E08081482F8B8139
:10476000282F30E081E090E0022E02C0880F991FD0
:104770000A94E2F7809584238C9317C0A2E3B0E0FB
:10478000E2E3F0E08081482F8B81282F30E081E048
:1047900090E0022E02C0880F991F0A94E2F78095DC
:1047A00084238C9302C081E08983898128960FB687
:1047B000F894DEBF0FBECDBFCF91DF910895AF92C9
:1047C000BF92CF92DF92EF92FF920F93DF93CF933E
:1047D000CDB7DEB70E94881E8BE294E260E070E005
:1047E00044E650E020E030E001E0EE24FF24CC2459
:1047F000DD24AA24BB240E944F148BE394E260E0E2
:1048000070E044E650E020E030E002E0EE24FF24D7
:10481000CC24DD24AA24BB240E944F148BE494E210
:1048200060E070E044E650E020E030E003E0EE2499
:10483000FF24CC24DD24AA24BB240E944F140E9410
:104840003A17CF91DF910F91FF90EF90DF90CF90CB
:10485000BF90AF900895DF93CF9300D0CDB7DEB770
:104860009A83898380E060E00E94622188EE93E071
:104870000E940916F7CFDF93CF9300D0CDB7DEB7F4
:104880009A83898380E061E00E94622188EE93E050
:104890000E940916F7CFDF93CF9300D0CDB7DEB7D4
:1048A0009A83898380E062E00E94622188EE93E02F
:1048B0000E940916F7CF629FD001739FF001829F7B
:1048C000E00DF11D649FE00DF11D929FF00D839F9F
:1048D000F00D749FF00D659FF00D9927729FB00D3C
:1048E000E11DF91F639FB00DE11DF91FBD01CF014F
:1048F0001124089597FB092E05260ED057FD04D0EC
:1049000014D00AD0001C38F450954095309521956C
:104910003F4F4F4F5F4F0895F6F7909580957095F4
:1049200061957F4F8F4F9F4F0895A1E21A2EAA1BCA
:10493000BB1BFD010DC0AA1FBB1FEE1FFF1FA2174F
:10494000B307E407F50720F0A21BB30BE40BF50B4C
:10495000661F771F881F991F1A9469F760957095D5
:10496000809590959B01AC01BD01CF010895FB019D
:10497000DC0102C001900D9241505040D8F70895DB
:04498000F894FFCFD9
:1049840051436F6E734E42005150726F644E420039
:10499400496E744D6174680049444C4500FFFF0042
:00000001FF
